:020000040000FA
:060000000A128A11E22F32
:100500000A128A119C220A128A11831603131114EB
:1005100008000A128A119C220A128A1183160313F8
:10052000111508000A128A119C220A128A117008F9
:1005300083120313930008008316031311081F3955
:10054000031DA32AA42A9C2A1419A72AA82A9C2A94
:1005500008007E088A007F0882000A128A11A922F8
:100560000A128A118000840A04087D0603190034E7
:10057000FF0A0319FE0AAD2A3F3400340634003462
:100580005B3400344F340034663400346D3400344E
:100590007D340034073400347F3400346F34003449
:1005A000023400341234003405340034063400348C
:1005B0000A3400343734003405340034F401F501D2
:1005C000701CE32AE42AEA2A7208F4070318F50AE1
:1005D0007308F50701300310F20DF30DFF3E031D04
:1005E000EB2A01300310F10CF00CFF3E031DF22A40
:1005F00070087104031DFD2AFE2AE02A7508F10027
:100600007408F00008000F307605F8000030770518
:10061000F900760E0F39F000770EF039F004770EFE
:100620000F39F100F030F11D0030F1040A30F20012
:100630000030F3000A128A11DE220A128A117808A9
:100640007007F60079080318790A7107F7000800A7
:100650000A128A119C220A128A1183160313911519
:100660000A128A119C220A128A1183120313130898
:10067000F200F3017208F4007308F5000A128A11FF
:100680009C220A128A11700871040319482B4C2B02
:100690008316031391164F2B831603139112111611
:1006A0007508F1007408F00008000030FC0000300C
:1006B000FB000030FA000030F900701C602B612B49
:1006C000782B7408F907750803110318013E031904
:1006D0006A2BFA07760803110318013E0319712BE0
:1006E000FB07770803110318013E0319782BFC0759
:1006F0000130F8000310F40DF50DF60DF70DF80BB1
:100700007A2B01300310F30CF20CF10CF00CFF3ECD
:10071000031D822B7308720471047004031D912B56
:10072000922B5D2B7C08F3007B08F2007A08F10025
:100730007908F00008008316031387150716283080
:10074000831203139400831603139101831203137E
:100750004F08D3005008D4005108D5005208D600E5
:1007600002300310D30DD40DD50DD60DFF3E031D61
:10077000B12B5608F3005508F2005408F100530855
:10078000F0000030F7000030F6000030F500643073
:10079000F4000A128A1155230A128A11730883126F
:1007A0000313C5007208C4007108C3007008C200BA
:1007B0000030C900F430C8002430C7000030C60043
:1007C0000A128A11AE240A128A11831203134208F4
:1007D000FF3E83160313930094010800F601F31FF4
:1007E000F22BF32BFA2BF209F309F20A0319F30A9D
:1007F000F601F60AF11FFD2BFE2B032CF009F1097F
:10080000F00A0319F10A700871040319082C092C65
:10081000382CF501F50A172C01300310F00DF10DFD
:10082000FF3E031D0D2C0130F4007408F507F11F85
:100830001A2C1B2C0C2C71087302031D212C700820
:100840007202031C242C252C2B2C7008F202710838
:10085000031CF303F30201300310F10CF00CFF3E14
:10086000031D2C2C0130F502031D372C382C1B2CBA
:10087000760803193C2C3D2C422CF209F309F20AAC
:100880000319F30A7308F1007208F0000800F6017A
:10089000F11F4B2C4C2C532CF009F109F00A0319D1
:1008A000F10AF601F60AF31F562C572C602CF209B8
:1008B000F309F20A0319F30A0130F4007408F6068A
:1008C000F701F801700871040319672C682C9F2C3C
:1008D000F501F50A762C01300310F00DF10DFF3E05
:1008E000031D6C2C0130F4007408F507F11F792CFE
:1008F0007A2C6B2C01300310F70DF80DFF3E031D11
:100900007B2C71087302031D872C70087202031C74
:100910008A2C8B2C922C7008F2027108031CF303B2
:10092000F302771401300310F10CF00CFF3E031DAD
:10093000932C0130F502031D9E2C9F2C7A2C7608F7
:100940000319A32CA42CA92CF709F809F70A0319F9
:10095000F80A7808F1007708F000080000308312E8
:100960000313CD000030CC000030CB000030CA00B3
:1009700045084404430442040319BF2CC02C0D2D28
:10098000CE01CE0AD02C0130FD000310C20DC30DE4
:10099000C40DC50DFD0BC52C0130FD007D08CE0733
:1009A000C51FD32CD42CC32C0130FD000310CA0D5D
:1009B000CB0DCC0DCD0DFD0BD62C45084902031DEA
:1009C000EB2C44084802031DEB2C43084702031D8F
:1009D000EB2C42084602031CEE2CEF2CFE2C4208A6
:1009E000C6024308031C430FC7024408031C440FFC
:1009F000C8024508031C450FC9024A140130031000
:100A0000C50CC40CC30CC20CFF3E031DFF2C0130EF
:100A1000CE02031D0C2D0D2DD42C4D08C5004C0805
:100A2000C4004B08C3004A08C20008000A128A1119
:100A300080220A128A11D030F0000030F1000A1230
:100A40008A1192220A128A110030F000F1000A1273
:100A50008A1192220A128A110A128A1189220A1212
:100A60008A110A128A1180220A128A11D130F000EA
:100A70000030F1000A128A1192220A128A11013002
:100A8000F0000030F1000A128A1128230A128A119C
:100A90007108F7007008F6000A128A1103230A127F
:100AA0008A11770883120313C1007608C000013051
:100AB000F0000030F1000A128A1128230A128A116C
:100AC0007108F7007008F6000A128A1103230A124F
:100AD0008A11770883120313BF007608BE00013025
:100AE000F0000030F1000A128A1128230A128A113C
:100AF0007108F7007008F6000A128A1103230A121F
:100B00008A11770883120313BD007608BC000130F8
:100B1000F0000030F1000A128A1128230A128A110B
:100B20000130F0000030F1000A128A1128230A1265
:100B30008A117108F7007008F6000A128A1103235F
:100B40000A128A11770883120313BB007608BA00D1
:100B50000130F0000030F1000A128A1128230A1235
:100B60008A117108F7007008F6000A128A1103232F
:100B70000A128A11770883120313B9007608B800A5
:100B80000130F0000030F1000A128A1128230A1205
:100B90008A117108F7007008F6000A128A110323FF
:100BA0000A128A11770883120313B7007608B60079
:100BB0000A128A1189220A128A110A128A118022C3
:100BC0000A128A11D130F0000030F1000A128A11A5
:100BD00092220A128A110130F0000030F1000A124C
:100BE0008A1128230A128A110A128A1189220A12EA
:100BF0008A110800831603138601831203138601EA
:100C00008316031388018312031388010030D20076
:100C10000030D1000030D0006430CF000A128A11B9
:100C20009B230A128A110A128A1116250A128A11A6
:100C30000A30F0000030F100831203134108F30082
:100C40004008F2000A128A11EE230A128A11710872
:100C500083120313E4007008E3000A30F000003050
:100C6000F1004108F3004008F2000A128A114724FB
:100C70000A128A11710883120313E2007008E1005E
:100C80000A30F0000030F1003F08F3003E08F200A7
:100C90000A128A11EE230A128A11710883120313B1
:100CA000E0007008DF000A30F0000030F1003F087B
:100CB000F3003E08F2000A128A1147240A128A1130
:100CC000710883120313DE007008DD003C033D044D
:100CD00003196B2E6C2E732E0D303C063D04031D44
:100CE000722E732E7A2E0130DB000030DC00D90129
:100CF000DA01542F02303C063D040319802E812E68
:100D0000882E0E303C063D04031D872E882E8D2E26
:100D10000230DB000030DC00772E03303C063D045F
:100D20000319932E942E9B2E0F303C063D04031D79
:100D30009A2E9B2EA02E0330DB000030DC00772E95
:100D400004303C063D040319A62EA72EAE2E10300B
:100D50003C063D04031DAD2EAE2EB32E0430DB0049
:100D60000030DC00772E05303C063D040319B92E17
:100D7000BA2EC12E11303C063D04031DC02EC12EDB
:100D8000C62E0530DB000030DC00772E06303C0636
:100D90003D040319CC2ECD2ED42E12303C063D043A
:100DA000031DD32ED42ED92E0630DB000030DC00FC
:100DB000772E07303C063D040319DF2EE02EE72E88
:100DC00013303C063D04031DE62EE72EEC2E0730C3
:100DD000DB000030DC00772E08303C063D040319B0
:100DE000F22EF32EFA2E14303C063D04031DF92E8C
:100DF000FA2EFF2E0830DB000030DC00772E0930A1
:100E00003C063D040319052F062F0D2F15303C0617
:100E10003D04031D0C2F0D2F122F0930DB00003075
:100E2000DC00772E0A303C063D040319182F192FD9
:100E3000202F16303C063D04031D1F2F202F272F87
:100E4000DB01DC010130D9000030DA00542F0B3017
:100E50003C063D0403192D2F2E2F352F17303C064D
:100E60003D04031D342F352F3E2F0130DB000030B1
:100E7000DC000130D9000030DA00542F0C303C0681
:100E80003D040319442F452F4B2F3C083D04031DFF
:100E90004A2F4B2F542F0230DB000030DC00013092
:100EA000D9000030DA00542F5908D7005707203EE8
:100EB000840083130008880086160B308312031306
:100EC000D8006130D700D70B632FD80B632F682F62
:100ED0008312031386125B08D7005707203E840055
:100EE00083130008880006160B3083120313D80002
:100EF0006130D700D70B7A2FD80B7A2F7F2F831230
:100F0000031306125D08D7005707203E84008313A1
:100F10000008880086150B3083120313D800613057
:100F2000D700D70B912FD80B912F962F8312031335
:100F300086115F08D7005707203E840083130008FE
:100F4000880006150B3083120313D8006130D700D8
:100F5000D70BA82FD80BA82FAD2F83120313061180
:100F60006108D7005707203E8400831300088800DB
:100F700086140B3083120313D8006130D700D70BCF
:100F8000BF2FD80BBF2FC42F831203138610630803
:100F9000D7005707203E84008313000888000614FA
:100FA0000B3083120313D8006130D700D70BD62F34
:100FB000D80BD62FDB2F831203130610132E0A1221
:100FC0008A11002883134230FD000230FE00BC303D
:100FD000FF00203084000A128A11AD220A128A1101
:100FE000D901DA01DB01DC01DD01DE01DF01E00115
:100FF000E101E201E301E40183010A128A11FA2D01
:02400E00723FFF
:00000001FF
