:020000040000FA
:060000000A128A11EA2F2A
:10060E000A128A1123230A128A1183160313111454
:10061E0008000A128A1123230A128A118316031361
:10062E00111508000A128A1123230A128A11700862
:10063E0083120313930008008316031311081F3946
:10064E00031D2A2B2B2B232B14192E2B2F2B232B55
:10065E0008007E088A007F0882000A128A11302361
:10066E000A128A118000840A04087D0603190034D8
:10067E00FF0A0319FE0A342B3F34003406340034CB
:10068E005B3400344F340034663400346D3400343F
:10069E007D340034073400347F3400346F3400343A
:1006AE001234003405340034063400340A34003475
:1006BE003734003405340034F401F501701C682B16
:1006CE00692B6F2B7208F4070318F50A7308F507E8
:1006DE0001300310F20DF30DFF3E031D702B0130A0
:1006EE000310F10CF00CFF3E031D772B7008710404
:1006FE00031D822B832B652B7508F1007408F00007
:10070E0008000F307605F80000307705F900760EF8
:10071E000F39F000770EF039F004770E0F39F10033
:10072E00F030F11D0030F1040A30F2000030F30019
:10073E000A128A1163230A128A1178087007F600CA
:10074E0079080318790A7107F70008000A128A114E
:10075E0023230A128A118316031391150A128A1182
:10076E0023230A128A11831203131308F200F301D2
:10077E007208F4007308F5000A128A1123230A1274
:10078E008A11700871040319CD2BD12B8316031314
:10079E009116D42B83160313911211167508F100BE
:1007AE007408F00008000030FC000030FB00003040
:1007BE00FA000030F900701CE52BE62BFD2B7408B7
:1007CE00F907750803110318013E0319EF2BFA07F9
:1007DE00760803110318013E0319F62BFB07770861
:1007EE0003110318013E0319FD2BFC070130F8001D
:1007FE000310F40DF50DF60DF70DF80BFF2B013070
:10080E000310F30CF20CF10CF00CFF3E031D072C41
:10081E007308720471047004031D162C172CE22B3E
:10082E007C08F3007B08F2007A08F1007908F000EA
:10083E000800831603138715071628308312031337
:10084E009400831603139101831203134D08D100F4
:10085E004E08D2004F08D3005008D40002300310C7
:10086E00D10DD20DD30DD40DFF3E031D362C5408E1
:10087E00F3005308F2005208F1005108F000003066
:10088E00F7000030F6000030F5006430F4000A1274
:10089E008A11DA230A128A11730883120313C30012
:1008AE007208C2007108C1007008C0000030C70095
:1008BE00F430C6002430C5000030C4000A128A117C
:1008CE0033250A128A11831203134008FF3E831642
:1008DE000313930094010800F601F31F772C782C74
:1008EE007F2CF209F309F20A0319F30AF601F60A4C
:1008FE00F11F822C832C882CF009F109F00A0319C0
:10090E00F10A7008710403198D2C8E2CBD2CF50183
:10091E00F50A9C2C01300310F00DF10DFF3E031D66
:10092E00922C0130F4007408F507F11F9F2CA02CB7
:10093E00912C71087302031DA62C70087202031C01
:10094E00A92CAA2CB02C7008F2027108031CF30318
:10095E00F30201300310F10CF00CFF3E031DB12C1D
:10096E000130F502031DBC2CBD2CA02C76080319FA
:10097E00C12CC22CC72CF209F309F20A0319F30A8F
:10098E007308F1007208F0000800F601F11FD02C78
:10099E00D12CD82CF009F109F00A0319F10AF6014D
:1009AE00F60AF31FDB2CDC2CE52CF209F309F20A14
:1009BE000319F30A0130F4007408F606F701F80182
:1009CE00700871040319EC2CED2C242DF501F50A99
:1009DE00FB2C01300310F00DF10DFF3E031DF12C29
:1009EE000130F4007408F507F11FFE2CFF2CF02CDB
:1009FE0001300310F70DF80DFF3E031D002D710899
:100A0E007302031D0C2D70087202031C0F2D102D86
:100A1E00172D7008F2027108031CF303F30277140A
:100A2E0001300310F10CF00CFF3E031D182D0130A8
:100A3E00F502031D232D242DFF2C76080319282DD6
:100A4E00292D2E2DF709F809F70A0319F80A780847
:100A5E00F1007708F0000800003083120313CB007A
:100A6E000030CA000030C9000030C80043084204FC
:100A7E00410440040319442D452D922DCC01CC0A7E
:100A8E00552D0130FD000310C00DC10DC20DC30D5B
:100A9E00FD0B4A2D0130FD007D08CC07C31F582DDC
:100AAE00592D482D0130FD000310C80DC90DCA0D7A
:100ABE00CB0DFD0B5B2D43084702031D702D420825
:100ACE004602031D702D41084502031D702D40087E
:100ADE004402031C732D742D832D4008C40241085B
:100AEE00031C410FC5024208031C420FC6024308F5
:100AFE00031C430FC702481401300310C30CC20C71
:100B0E00C10CC00CFF3E031D842D0130CC02031D11
:100B1E00912D922D592D4B08C3004A08C200490849
:100B2E00C1004808C00008000A128A1107230A12E1
:100B3E008A11D030F0000030F1000A128A11192308
:100B4E000A128A110030F000F1000A128A111923DC
:100B5E000A128A110A128A1110230A128A110A1213
:100B6E008A1107230A128A11D130F0000030F100E9
:100B7E000A128A1119230A128A110130F00000306C
:100B8E00F1000A128A11AD230A128A117108F700B8
:100B9E007008F6000A128A1188230A128A11770841
:100BAE0083120313BF007608BE000130F000003040
:100BBE00F1000A128A11AD230A128A117108F70088
:100BCE007008F6000A128A1188230A128A11770811
:100BDE0083120313BD007608BC000130F000003014
:100BEE00F1000A128A11AD230A128A117108F70058
:100BFE007008F6000A128A1188230A128A117708E1
:100C0E0083120313BB007608BA000130F0000030E7
:100C1E00F1000A128A11AD230A128A110130F00076
:100C2E000030F1000A128A11AD230A128A117108DE
:100C3E00F7007008F6000A128A1188230A128A1128
:100C4E00770883120313B9007608B8000130F0005C
:100C5E000030F1000A128A11AD230A128A117108AE
:100C6E00F7007008F6000A128A1188230A128A11F8
:100C7E00770883120313B7007608B6000130F00030
:100C8E000030F1000A128A11AD230A128A1171087E
:100C9E00F7007008F6000A128A1188230A128A11C8
:100CAE00770883120313B5007608B4000A128A116E
:100CBE0010230A128A110A128A1107230A128A11A4
:100CCE00D130F0000030F1000A128A1119230A12F5
:100CDE008A110130F0000030F1000A128A11AD23A2
:100CEE000A128A110A128A1110230A128A11080096
:100CFE0083160313850183120313850183160313D1
:100D0E00870183120313870183160313860183124F
:100D1E0003138601831603138801831203138801BC
:100D2E000030D0000030CF000030CE006430CD0057
:100D3E000A128A1120240A128A110A128A119B257C
:100D4E000A128A110A30F0000030F10083120313E8
:100D5E003D08F3003C08F2000A128A1173240A12AD
:100D6E008A11710883120313DA007008D9000A3051
:100D7E00F0000030F1003D08F3003C08F2000A12CA
:100D8E008A11CC240A128A11710883120313D80017
:100D9E007008D7005908D5005507203E84008313EC
:100DAE0000088800871207171A3083120313D60023
:100DBE00F730D500D50BE12ED60BE12EE62E8312A1
:100DCE0003135708D5005507203E840083130008EF
:100DDE008800071387161A3083120313D600F730D4
:100DEE00D500D50BF82ED60BF82EFD2E831203133D
:100DFE003A033B040319042F052F0C2F0D303A062E
:100E0E003B04031D0B2F0C2F152F85010615861184
:100E1E0006128612061386138710A42E02303A0687
:100E2E003B0403191B2F1C2F232F0E303A063B04B5
:100E3E00031D222F232F272F8501061186150F2F15
:100E4E0003303A063B0403192D2F2E2F352F0F306A
:100E5E003A063B04031D342F352F3A2F8501061118
:100E6E0086110616102F04303A063B040319402F44
:100E7E00412F482F10303A063B04031D472F482FB1
:100E8E004E2F85010611861106128616112F05307A
:100E9E003A063B040319542F552F5C2F11303A0696
:100EAE003B04031D5B2F5C2F642F06118611061267
:100EBE008612061786138710A42E06303A063B04B8
:100ECE0003196A2F6B2F722F12303A063B04031D43
:100EDE00712F722F7A2F8501061186110612861236
:100EEE0006138617132F07303A063B040319802F7B
:100EFE00812F882F13303A063B04031D872F882F2E
:100F0E008C2F2030850006110E2F08303A063B0438
:100F1E000319922F932F9A2F14303A063B04031D78
:100F2E00992F9A2FA32F850106118611061286126C
:100F3E00061386138714A42E09303A063B040319B0
:100F4E00A92FAA2FB12F15303A063B04031DB02F3F
:100F5E00B12FB42F083085008A2F0A303A063B0491
:100F6E000319BA2FBB2FC22F16303A063B04031DAE
:100F7E00C12FC22FC52F043085008A2F0B303A06A1
:100F8E003B040319CB2FCC2FD32F17303A063B043B
:100F9E00031DD22FD32FD62F023085008A2F0C306F
:100FAE003A063B040319DC2FDD2FE32F3A083B04EE
:100FBE00031DE22FE32FE62F013085008A2FA42E8A
:100FCE000A128A11002883134030FD000330FE0000
:100FDE004330FF00203084000A128A1134230A1293
:100FEE008A11D701D801D901DA0183010A128A11B7
:020FFE007F2E44
:02400E00723FFF
:00000001FF
